{
  "contractName": "Election",
  "abi": [
    {
      "constant": true,
      "inputs": [
        {
          "name": "",
          "type": "uint256"
        }
      ],
      "name": "candidates",
      "outputs": [
        {
          "name": "id",
          "type": "uint256"
        },
        {
          "name": "name",
          "type": "string"
        },
        {
          "name": "voteCount",
          "type": "uint256"
        }
      ],
      "payable": false,
      "stateMutability": "view",
      "type": "function"
    },
    {
      "constant": true,
      "inputs": [
        {
          "name": "",
          "type": "address"
        }
      ],
      "name": "voters",
      "outputs": [
        {
          "name": "",
          "type": "bool"
        }
      ],
      "payable": false,
      "stateMutability": "view",
      "type": "function"
    },
    {
      "constant": true,
      "inputs": [],
      "name": "candidateCount",
      "outputs": [
        {
          "name": "",
          "type": "uint256"
        }
      ],
      "payable": false,
      "stateMutability": "view",
      "type": "function"
    },
    {
      "inputs": [],
      "payable": false,
      "stateMutability": "nonpayable",
      "type": "constructor"
    },
    {
      "constant": false,
      "inputs": [
        {
          "name": "_candidateId",
          "type": "uint256"
        }
      ],
      "name": "vote",
      "outputs": [],
      "payable": false,
      "stateMutability": "nonpayable",
      "type": "function"
    }
  ],
  "bytecode": "0x608060405234801561001057600080fd5b5061005e6040805190810160405280601081526020017f5661696268617620416767617277616c000000000000000000000000000000008152506100b0640100000000026401000000009004565b6100ab6040805190810160405280600f81526020017f53686976616d20416767617277616c00000000000000000000000000000000008152506100b0640100000000026401000000009004565b6101d2565b6002600081548092919060010191905055506060604051908101604052806002548152602001828152602001600081525060016000600254815260200190815260200160002060008201518160000155602082015181600101908051906020019061011c92919061012d565b506040820151816002015590505050565b828054600181600116156101000203166002900490600052602060002090601f016020900481019282601f1061016e57805160ff191683800117855561019c565b8280016001018555821561019c579182015b8281111561019b578251825591602001919060010190610180565b5b5090506101a991906101ad565b5090565b6101cf91905b808211156101cb5760008160009055506001016101b3565b5090565b90565b6103d8806101e16000396000f300608060405260043610610062576000357c0100000000000000000000000000000000000000000000000000000000900463ffffffff1680630121b93f146100675780633477ee2e14610094578063a3ec138d14610148578063a9a981a3146101a3575b600080fd5b34801561007357600080fd5b50610092600480360381019080803590602001909291905050506101ce565b005b3480156100a057600080fd5b506100bf600480360381019080803590602001909291905050506102c4565b6040518084815260200180602001838152602001828103825284818151815260200191508051906020019080838360005b8381101561010b5780820151818401526020810190506100f0565b50505050905090810190601f1680156101385780820380516001836020036101000a031916815260200191505b5094505050505060405180910390f35b34801561015457600080fd5b50610189600480360381019080803573ffffffffffffffffffffffffffffffffffffffff169060200190929190505050610386565b604051808215151515815260200191505060405180910390f35b3480156101af57600080fd5b506101b86103a6565b6040518082815260200191505060405180910390f35b6000803373ffffffffffffffffffffffffffffffffffffffff1673ffffffffffffffffffffffffffffffffffffffff16815260200190815260200160002060009054906101000a900460ff1615151561022657600080fd5b6001811015801561023957506002548111155b151561024457600080fd5b60016000803373ffffffffffffffffffffffffffffffffffffffff1673ffffffffffffffffffffffffffffffffffffffff16815260200190815260200160002060006101000a81548160ff021916908315150217905550600160008281526020019081526020016000206002016000815480929190600101919050555050565b6001602052806000526040600020600091509050806000015490806001018054600181600116156101000203166002900480601f0160208091040260200160405190810160405280929190818152602001828054600181600116156101000203166002900480156103765780601f1061034b57610100808354040283529160200191610376565b820191906000526020600020905b81548152906001019060200180831161035957829003601f168201915b5050505050908060020154905083565b60006020528060005260406000206000915054906101000a900460ff1681565b600254815600a165627a7a723058208e0b2ea0fb655df9f6c5f849586c8b59e541b625a653b6bd51cb2d66f5a5ba0f0029",
  "source": "pragma solidity ^0.4.23;\n\ncontract Election{\n\n\n\t//just sytactic sugar\n\t//EVM not aware of them \n\tstruct Candidate{\n\n\t\tuint id;\n\t\tstring name;\n\t\tuint voteCount;\n\n\t}\n\n\t//mapping as array use\n\t//not length defined thats why vairbale candidateCount\n\n\tmapping(address=>bool) public voters; \n\n\tmapping(uint=>Candidate) public candidates;\n\t//if public getter present deault\n\t\n\tuint public candidateCount;\n\n\tfunction Election() public {\n\n\t\taddCandidate(\"Vaibhav Aggarwal\");\n\t\taddCandidate(\"Shivam Aggarwal\");\n\n\t}\n\n\n\t//candidate count public\n\t//public gives a getter function by itself(solidity)\n\t//functions in solidity allow to pass metadata\n\t\n\n\t//want contract to acces it\n\tfunction addCandidate (string _name) private{\n\n\t\tcandidateCount++;\n\n\t\tcandidates[candidateCount] = Candidate(candidateCount, _name, 0);\n\t}\n\n\n\t//voting function should be public\n\tfunction vote (uint _candidateId) public {\n\n\t\t//they have not voted earlier\n\t\t//sort of condn if evelauted true then forward\n\t\trequire(!voters[msg.sender]);\n\n\t\t//valid voter\n\t\trequire(_candidateId>=1 && _candidateId<=candidateCount);\n\n\t\t//record voter has voted\n\t\tvoters[msg.sender]=true;\n\n\t\t//want to increse count\n\t\tcandidates[_candidateId].voteCount++;\n\t}\n}",
  "sourcePath": "/Users/alakazam/Documents/projects/PE/election/contracts/Election.sol",
  "compiler": {
    "name": "solc",
    "version": "0.4.24+commit.e67f0147.Emscripten.clang"
  },
  "schemaVersion": "2.0.1",
  "updatedAt": "2018-10-29T05:52:52.708Z"
}